{
  "_format": "hh-sol-artifact-1",
  "contractName": "CityHacks",
  "sourceName": "contracts/CityHacks.sol",
  "abi": [
    {
      "inputs": [],
      "stateMutability": "nonpayable",
      "type": "constructor"
    },
    {
      "anonymous": false,
      "inputs": [
        {
          "indexed": true,
          "internalType": "address",
          "name": "from",
          "type": "address"
        },
        {
          "indexed": true,
          "internalType": "uint256",
          "name": "id",
          "type": "uint256"
        },
        {
          "indexed": false,
          "internalType": "string",
          "name": "description",
          "type": "string"
        },
        {
          "indexed": false,
          "internalType": "uint256",
          "name": "timestamp",
          "type": "uint256"
        }
      ],
      "name": "NewHack",
      "type": "event"
    },
    {
      "anonymous": false,
      "inputs": [
        {
          "indexed": true,
          "internalType": "address",
          "name": "from",
          "type": "address"
        },
        {
          "indexed": true,
          "internalType": "uint256",
          "name": "hackId",
          "type": "uint256"
        },
        {
          "indexed": false,
          "internalType": "bool",
          "name": "_positive",
          "type": "bool"
        },
        {
          "indexed": false,
          "internalType": "uint256",
          "name": "timestamp",
          "type": "uint256"
        }
      ],
      "name": "VotedHack",
      "type": "event"
    },
    {
      "inputs": [],
      "name": "getAllHacks",
      "outputs": [
        {
          "components": [
            {
              "internalType": "address",
              "name": "owner",
              "type": "address"
            },
            {
              "internalType": "uint256",
              "name": "id",
              "type": "uint256"
            },
            {
              "internalType": "uint256",
              "name": "cityId",
              "type": "uint256"
            },
            {
              "internalType": "uint256",
              "name": "categoryId",
              "type": "uint256"
            },
            {
              "internalType": "string",
              "name": "description",
              "type": "string"
            },
            {
              "internalType": "uint256",
              "name": "timestamp",
              "type": "uint256"
            },
            {
              "internalType": "bool",
              "name": "isVotingBlocked",
              "type": "bool"
            },
            {
              "internalType": "uint256",
              "name": "totalUpvotes",
              "type": "uint256"
            },
            {
              "internalType": "uint256",
              "name": "totalDownvotes",
              "type": "uint256"
            }
          ],
          "internalType": "struct CityHacks.Hack[]",
          "name": "",
          "type": "tuple[]"
        }
      ],
      "stateMutability": "view",
      "type": "function"
    },
    {
      "inputs": [],
      "name": "getTotalHacks",
      "outputs": [
        {
          "internalType": "uint256",
          "name": "",
          "type": "uint256"
        }
      ],
      "stateMutability": "view",
      "type": "function"
    },
    {
      "inputs": [
        {
          "internalType": "string",
          "name": "_description",
          "type": "string"
        },
        {
          "internalType": "uint256",
          "name": "_cityId",
          "type": "uint256"
        },
        {
          "internalType": "uint256",
          "name": "_categoryId",
          "type": "uint256"
        }
      ],
      "name": "postHack",
      "outputs": [],
      "stateMutability": "nonpayable",
      "type": "function"
    },
    {
      "inputs": [
        {
          "internalType": "uint256",
          "name": "_hackId",
          "type": "uint256"
        },
        {
          "internalType": "bool",
          "name": "_positive",
          "type": "bool"
        }
      ],
      "name": "voteHack",
      "outputs": [],
      "stateMutability": "nonpayable",
      "type": "function"
    }
  ],
  "bytecode": "0x608060405234801561001057600080fd5b5061106a806100206000396000f3fe608060405234801561001057600080fd5b506004361061004c5760003560e01c80638e15f0d514610051578063b037aa1c1461006f578063c342b5af1461008d578063cf42dfe7146100a9575b600080fd5b6100596100c5565b6040516100669190610c9f565b60405180910390f35b610077610264565b6040516100849190610d1a565b60405180910390f35b6100a760048036038101906100a29190610a58565b61026d565b005b6100c360048036038101906100be91906109f1565b6106d4565b005b60606001805480602002602001604051908101604052809291908181526020016000905b8282101561025b5783829060005260206000209060090201604051806101200160405290816000820160009054906101000a900473ffffffffffffffffffffffffffffffffffffffff1673ffffffffffffffffffffffffffffffffffffffff1673ffffffffffffffffffffffffffffffffffffffff16815260200160018201548152602001600282015481526020016003820154815260200160048201805461019190610f05565b80601f01602080910402602001604051908101604052809291908181526020018280546101bd90610f05565b801561020a5780601f106101df5761010080835404028352916020019161020a565b820191906000526020600020905b8154815290600101906020018083116101ed57829003601f168201915b50505050508152602001600582015481526020016006820160009054906101000a900460ff1615151515815260200160078201548152602001600882015481525050815260200190600101906100e9565b50505050905090565b60008054905090565b6000600260003373ffffffffffffffffffffffffffffffffffffffff1673ffffffffffffffffffffffffffffffffffffffff16815260200190815260200160002060008481526020019081526020016000206040518060400160405290816000820160009054906101000a900460ff161515151581526020016000820160019054906101000a900460ff16151515158152505090508060000151156104be5781151581602001511515141561032157600080fd5b8060200151156103f4576001808481548110610366577f4e487b7100000000000000000000000000000000000000000000000000000000600052603260045260246000fd5b906000526020600020906009020160070160008282546103869190610e47565b9250508190555060018084815481106103c8577f4e487b7100000000000000000000000000000000000000000000000000000000600052603260045260246000fd5b906000526020600020906009020160080160008282546103e89190610df1565b925050819055506104b9565b600180848154811061042f577f4e487b7100000000000000000000000000000000000000000000000000000000600052603260045260246000fd5b9060005260206000209060090201600701600082825461044f9190610df1565b925050819055506001808481548110610491577f4e487b7100000000000000000000000000000000000000000000000000000000600052603260045260246000fd5b906000526020600020906009020160080160008282546104b19190610e47565b925050819055505b6105a0565b811561052b5760018084815481106104ff577f4e487b7100000000000000000000000000000000000000000000000000000000600052603260045260246000fd5b9060005260206000209060090201600701600082825461051f9190610df1565b9250508190555061058e565b6001808481548110610566577f4e487b7100000000000000000000000000000000000000000000000000000000600052603260045260246000fd5b906000526020600020906009020160080160008282546105869190610df1565b925050819055505b60018160000190151590811515815250505b8181602001901515908115158152505080600260003373ffffffffffffffffffffffffffffffffffffffff1673ffffffffffffffffffffffffffffffffffffffff168152602001908152602001600020600085815260200190815260200160002060008201518160000160006101000a81548160ff02191690831515021790555060208201518160000160016101000a81548160ff02191690831515021790555090505060036000848152602001908152602001600020429080600181540180825580915050600190039060005260206000200160009091909190915055823373ffffffffffffffffffffffffffffffffffffffff167f4fb078f057caaccd039905efcc630de8af450d7c575a79dcddc983edd7423c1284426040516106c7929190610cc1565b60405180910390a3505050565b6000839050600081511180156106ea5750600083115b80156106f65750600082115b6106ff57600080fd5b60016040518061012001604052803373ffffffffffffffffffffffffffffffffffffffff1681526020016000548152602001858152602001848152602001868152602001428152602001600015158152602001600081526020016000815250908060018154018082558091505060019003906000526020600020906009020160009091909190915060008201518160000160006101000a81548173ffffffffffffffffffffffffffffffffffffffff021916908373ffffffffffffffffffffffffffffffffffffffff16021790555060208201518160010155604082015181600201556060820151816003015560808201518160040190805190602001906108089291906108bc565b5060a0820151816005015560c08201518160060160006101000a81548160ff02191690831515021790555060e0820151816007015561010082015181600801555050600160008082825461085c9190610df1565b925050819055506000543373ffffffffffffffffffffffffffffffffffffffff167ff1bd87d4783914bb1934b1c002d65179a1a8d7f4f3f64a198b93c9e8762204b586426040516108ae929190610cea565b60405180910390a350505050565b8280546108c890610f05565b90600052602060002090601f0160209004810192826108ea5760008555610931565b82601f1061090357805160ff1916838001178555610931565b82800160010185558215610931579182015b82811115610930578251825591602001919060010190610915565b5b50905061093e9190610942565b5090565b5b8082111561095b576000816000905550600101610943565b5090565b600061097261096d84610d5a565b610d35565b90508281526020810184848401111561098a57600080fd5b610995848285610ec3565b509392505050565b6000813590506109ac81611006565b92915050565b600082601f8301126109c357600080fd5b81356109d384826020860161095f565b91505092915050565b6000813590506109eb8161101d565b92915050565b600080600060608486031215610a0657600080fd5b600084013567ffffffffffffffff811115610a2057600080fd5b610a2c868287016109b2565b9350506020610a3d868287016109dc565b9250506040610a4e868287016109dc565b9150509250925092565b60008060408385031215610a6b57600080fd5b6000610a79858286016109dc565b9250506020610a8a8582860161099d565b9150509250929050565b6000610aa08383610bbc565b905092915050565b610ab181610e7b565b82525050565b6000610ac282610d9b565b610acc8185610dbe565b935083602082028501610ade85610d8b565b8060005b85811015610b1a5784840389528151610afb8582610a94565b9450610b0683610db1565b925060208a01995050600181019050610ae2565b50829750879550505050505092915050565b610b3581610e8d565b82525050565b610b4481610e8d565b82525050565b6000610b5582610da6565b610b5f8185610dcf565b9350610b6f818560208601610ed2565b610b7881610ff5565b840191505092915050565b6000610b8e82610da6565b610b988185610de0565b9350610ba8818560208601610ed2565b610bb181610ff5565b840191505092915050565b600061012083016000830151610bd56000860182610aa8565b506020830151610be86020860182610c81565b506040830151610bfb6040860182610c81565b506060830151610c0e6060860182610c81565b5060808301518482036080860152610c268282610b4a565b91505060a0830151610c3b60a0860182610c81565b5060c0830151610c4e60c0860182610b2c565b5060e0830151610c6160e0860182610c81565b50610100830151610c76610100860182610c81565b508091505092915050565b610c8a81610eb9565b82525050565b610c9981610eb9565b82525050565b60006020820190508181036000830152610cb98184610ab7565b905092915050565b6000604082019050610cd66000830185610b3b565b610ce36020830184610c90565b9392505050565b60006040820190508181036000830152610d048185610b83565b9050610d136020830184610c90565b9392505050565b6000602082019050610d2f6000830184610c90565b92915050565b6000610d3f610d50565b9050610d4b8282610f37565b919050565b6000604051905090565b600067ffffffffffffffff821115610d7557610d74610fc6565b5b610d7e82610ff5565b9050602081019050919050565b6000819050602082019050919050565b600081519050919050565b600081519050919050565b6000602082019050919050565b600082825260208201905092915050565b600082825260208201905092915050565b600082825260208201905092915050565b6000610dfc82610eb9565b9150610e0783610eb9565b9250827fffffffffffffffffffffffffffffffffffffffffffffffffffffffffffffffff03821115610e3c57610e3b610f68565b5b828201905092915050565b6000610e5282610eb9565b9150610e5d83610eb9565b925082821015610e7057610e6f610f68565b5b828203905092915050565b6000610e8682610e99565b9050919050565b60008115159050919050565b600073ffffffffffffffffffffffffffffffffffffffff82169050919050565b6000819050919050565b82818337600083830152505050565b60005b83811015610ef0578082015181840152602081019050610ed5565b83811115610eff576000848401525b50505050565b60006002820490506001821680610f1d57607f821691505b60208210811415610f3157610f30610f97565b5b50919050565b610f4082610ff5565b810181811067ffffffffffffffff82111715610f5f57610f5e610fc6565b5b80604052505050565b7f4e487b7100000000000000000000000000000000000000000000000000000000600052601160045260246000fd5b7f4e487b7100000000000000000000000000000000000000000000000000000000600052602260045260246000fd5b7f4e487b7100000000000000000000000000000000000000000000000000000000600052604160045260246000fd5b6000601f19601f8301169050919050565b61100f81610e8d565b811461101a57600080fd5b50565b61102681610eb9565b811461103157600080fd5b5056fea2646970667358221220473f0ea7074f2e10fc65eaefc6970a53595d3c5a14db3164f8e7a2630bf8a2fc64736f6c63430008040033",
  "linkReferences": {},
  "deployedLinkReferences": {}
}