{
  "_format": "hh-sol-artifact-1",
  "contractName": "CityHacks",
  "sourceName": "contracts/CityHacks.sol",
  "abi": [
    {
      "inputs": [],
      "stateMutability": "nonpayable",
      "type": "constructor"
    },
    {
      "anonymous": false,
      "inputs": [
        {
          "indexed": true,
          "internalType": "address",
          "name": "from",
          "type": "address"
        },
        {
          "indexed": true,
          "internalType": "uint256",
          "name": "id",
          "type": "uint256"
        },
        {
          "indexed": false,
          "internalType": "string",
          "name": "description",
          "type": "string"
        },
        {
          "indexed": false,
          "internalType": "uint256",
          "name": "timestamp",
          "type": "uint256"
        }
      ],
      "name": "NewHack",
      "type": "event"
    },
    {
      "anonymous": false,
      "inputs": [
        {
          "indexed": true,
          "internalType": "address",
          "name": "from",
          "type": "address"
        },
        {
          "indexed": true,
          "internalType": "uint256",
          "name": "hackId",
          "type": "uint256"
        },
        {
          "indexed": false,
          "internalType": "bool",
          "name": "_positive",
          "type": "bool"
        },
        {
          "indexed": false,
          "internalType": "uint256",
          "name": "timestamp",
          "type": "uint256"
        }
      ],
      "name": "VotedHack",
      "type": "event"
    },
    {
      "inputs": [],
      "name": "getAllHacks",
      "outputs": [
        {
          "components": [
            {
              "internalType": "address",
              "name": "owner",
              "type": "address"
            },
            {
              "internalType": "uint256",
              "name": "id",
              "type": "uint256"
            },
            {
              "internalType": "uint256",
              "name": "cityId",
              "type": "uint256"
            },
            {
              "internalType": "uint256",
              "name": "categoryId",
              "type": "uint256"
            },
            {
              "internalType": "string",
              "name": "description",
              "type": "string"
            },
            {
              "internalType": "uint256",
              "name": "timestamp",
              "type": "uint256"
            },
            {
              "internalType": "bool",
              "name": "isVotingBlocked",
              "type": "bool"
            },
            {
              "internalType": "uint256",
              "name": "totalUpvotes",
              "type": "uint256"
            },
            {
              "internalType": "uint256",
              "name": "totalDownvotes",
              "type": "uint256"
            }
          ],
          "internalType": "struct CityHacks.Hack[]",
          "name": "",
          "type": "tuple[]"
        }
      ],
      "stateMutability": "view",
      "type": "function"
    },
    {
      "inputs": [],
      "name": "getTotalHacks",
      "outputs": [
        {
          "internalType": "uint256",
          "name": "",
          "type": "uint256"
        }
      ],
      "stateMutability": "view",
      "type": "function"
    },
    {
      "inputs": [
        {
          "internalType": "string",
          "name": "_description",
          "type": "string"
        },
        {
          "internalType": "uint256",
          "name": "_cityId",
          "type": "uint256"
        },
        {
          "internalType": "uint256",
          "name": "_categoryId",
          "type": "uint256"
        }
      ],
      "name": "postHack",
      "outputs": [],
      "stateMutability": "nonpayable",
      "type": "function"
    },
    {
      "inputs": [
        {
          "internalType": "uint256",
          "name": "_hackId",
          "type": "uint256"
        }
      ],
      "name": "tipHacker",
      "outputs": [],
      "stateMutability": "payable",
      "type": "function"
    },
    {
      "inputs": [
        {
          "internalType": "uint256",
          "name": "_hackId",
          "type": "uint256"
        },
        {
          "internalType": "bool",
          "name": "_positive",
          "type": "bool"
        }
      ],
      "name": "voteHack",
      "outputs": [],
      "stateMutability": "nonpayable",
      "type": "function"
    }
  ],
  "bytecode": "0x608060405234801561001057600080fd5b506112ae806100206000396000f3fe60806040526004361061004a5760003560e01c80633ba5fc3e1461004f5780638e15f0d51461006b578063b037aa1c14610096578063c342b5af146100c1578063cf42dfe7146100ea575b600080fd5b61006960048036038101906100649190610bc1565b610113565b005b34801561007757600080fd5b5061008061022e565b60405161008d9190610e8c565b60405180910390f35b3480156100a257600080fd5b506100ab6103cd565b6040516100b89190610f27565b60405180910390f35b3480156100cd57600080fd5b506100e860048036038101906100e39190610bea565b6103d6565b005b3480156100f657600080fd5b50610111600480360381019061010c9190610b5a565b61083d565b005b60006001828154811061014f577f4e487b7100000000000000000000000000000000000000000000000000000000600052603260045260246000fd5b906000526020600020906009020160000160009054906101000a900473ffffffffffffffffffffffffffffffffffffffff1673ffffffffffffffffffffffffffffffffffffffff16346040516101a490610e77565b60006040518083038185875af1925050503d80600081146101e1576040519150601f19603f3d011682016040523d82523d6000602084013e6101e6565b606091505b505090508061022a576040517f08c379a000000000000000000000000000000000000000000000000000000000815260040161022190610f07565b60405180910390fd5b5050565b60606001805480602002602001604051908101604052809291908181526020016000905b828210156103c45783829060005260206000209060090201604051806101200160405290816000820160009054906101000a900473ffffffffffffffffffffffffffffffffffffffff1673ffffffffffffffffffffffffffffffffffffffff1673ffffffffffffffffffffffffffffffffffffffff1681526020016001820154815260200160028201548152602001600382015481526020016004820180546102fa9061111d565b80601f01602080910402602001604051908101604052809291908181526020018280546103269061111d565b80156103735780601f1061034857610100808354040283529160200191610373565b820191906000526020600020905b81548152906001019060200180831161035657829003601f168201915b50505050508152602001600582015481526020016006820160009054906101000a900460ff161515151581526020016007820154815260200160088201548152505081526020019060010190610252565b50505050905090565b60008054905090565b6000600260003373ffffffffffffffffffffffffffffffffffffffff1673ffffffffffffffffffffffffffffffffffffffff16815260200190815260200160002060008481526020019081526020016000206040518060400160405290816000820160009054906101000a900460ff161515151581526020016000820160019054906101000a900460ff16151515158152505090508060000151156106275781151581602001511515141561048a57600080fd5b80602001511561055d5760018084815481106104cf577f4e487b7100000000000000000000000000000000000000000000000000000000600052603260045260246000fd5b906000526020600020906009020160070160008282546104ef919061105f565b925050819055506001808481548110610531577f4e487b7100000000000000000000000000000000000000000000000000000000600052603260045260246000fd5b906000526020600020906009020160080160008282546105519190611009565b92505081905550610622565b6001808481548110610598577f4e487b7100000000000000000000000000000000000000000000000000000000600052603260045260246000fd5b906000526020600020906009020160070160008282546105b89190611009565b9250508190555060018084815481106105fa577f4e487b7100000000000000000000000000000000000000000000000000000000600052603260045260246000fd5b9060005260206000209060090201600801600082825461061a919061105f565b925050819055505b610709565b8115610694576001808481548110610668577f4e487b7100000000000000000000000000000000000000000000000000000000600052603260045260246000fd5b906000526020600020906009020160070160008282546106889190611009565b925050819055506106f7565b60018084815481106106cf577f4e487b7100000000000000000000000000000000000000000000000000000000600052603260045260246000fd5b906000526020600020906009020160080160008282546106ef9190611009565b925050819055505b60018160000190151590811515815250505b8181602001901515908115158152505080600260003373ffffffffffffffffffffffffffffffffffffffff1673ffffffffffffffffffffffffffffffffffffffff168152602001908152602001600020600085815260200190815260200160002060008201518160000160006101000a81548160ff02191690831515021790555060208201518160000160016101000a81548160ff02191690831515021790555090505060036000848152602001908152602001600020429080600181540180825580915050600190039060005260206000200160009091909190915055823373ffffffffffffffffffffffffffffffffffffffff167f4fb078f057caaccd039905efcc630de8af450d7c575a79dcddc983edd7423c128442604051610830929190610eae565b60405180910390a3505050565b6000839050600081511180156108535750600083115b801561085f5750600082115b61086857600080fd5b60016040518061012001604052803373ffffffffffffffffffffffffffffffffffffffff1681526020016000548152602001858152602001848152602001868152602001428152602001600015158152602001600081526020016000815250908060018154018082558091505060019003906000526020600020906009020160009091909190915060008201518160000160006101000a81548173ffffffffffffffffffffffffffffffffffffffff021916908373ffffffffffffffffffffffffffffffffffffffff1602179055506020820151816001015560408201518160020155606082015181600301556080820151816004019080519060200190610971929190610a25565b5060a0820151816005015560c08201518160060160006101000a81548160ff02191690831515021790555060e082015181600701556101008201518160080155505060016000808282546109c59190611009565b925050819055506000543373ffffffffffffffffffffffffffffffffffffffff167ff1bd87d4783914bb1934b1c002d65179a1a8d7f4f3f64a198b93c9e8762204b58642604051610a17929190610ed7565b60405180910390a350505050565b828054610a319061111d565b90600052602060002090601f016020900481019282610a535760008555610a9a565b82601f10610a6c57805160ff1916838001178555610a9a565b82800160010185558215610a9a579182015b82811115610a99578251825591602001919060010190610a7e565b5b509050610aa79190610aab565b5090565b5b80821115610ac4576000816000905550600101610aac565b5090565b6000610adb610ad684610f67565b610f42565b905082815260208101848484011115610af357600080fd5b610afe8482856110db565b509392505050565b600081359050610b158161124a565b92915050565b600082601f830112610b2c57600080fd5b8135610b3c848260208601610ac8565b91505092915050565b600081359050610b5481611261565b92915050565b600080600060608486031215610b6f57600080fd5b600084013567ffffffffffffffff811115610b8957600080fd5b610b9586828701610b1b565b9350506020610ba686828701610b45565b9250506040610bb786828701610b45565b9150509250925092565b600060208284031215610bd357600080fd5b6000610be184828501610b45565b91505092915050565b60008060408385031215610bfd57600080fd5b6000610c0b85828601610b45565b9250506020610c1c85828601610b06565b9150509250929050565b6000610c328383610d94565b905092915050565b610c4381611093565b82525050565b6000610c5482610fa8565b610c5e8185610fcb565b935083602082028501610c7085610f98565b8060005b85811015610cac5784840389528151610c8d8582610c26565b9450610c9883610fbe565b925060208a01995050600181019050610c74565b50829750879550505050505092915050565b610cc7816110a5565b82525050565b610cd6816110a5565b82525050565b6000610ce782610fb3565b610cf18185610fe7565b9350610d018185602086016110ea565b610d0a8161120d565b840191505092915050565b6000610d2082610fb3565b610d2a8185610ff8565b9350610d3a8185602086016110ea565b610d438161120d565b840191505092915050565b6000610d5b601483610ff8565b9150610d668261121e565b602082019050919050565b6000610d7e600083610fdc565b9150610d8982611247565b600082019050919050565b600061012083016000830151610dad6000860182610c3a565b506020830151610dc06020860182610e59565b506040830151610dd36040860182610e59565b506060830151610de66060860182610e59565b5060808301518482036080860152610dfe8282610cdc565b91505060a0830151610e1360a0860182610e59565b5060c0830151610e2660c0860182610cbe565b5060e0830151610e3960e0860182610e59565b50610100830151610e4e610100860182610e59565b508091505092915050565b610e62816110d1565b82525050565b610e71816110d1565b82525050565b6000610e8282610d71565b9150819050919050565b60006020820190508181036000830152610ea68184610c49565b905092915050565b6000604082019050610ec36000830185610ccd565b610ed06020830184610e68565b9392505050565b60006040820190508181036000830152610ef18185610d15565b9050610f006020830184610e68565b9392505050565b60006020820190508181036000830152610f2081610d4e565b9050919050565b6000602082019050610f3c6000830184610e68565b92915050565b6000610f4c610f5d565b9050610f58828261114f565b919050565b6000604051905090565b600067ffffffffffffffff821115610f8257610f816111de565b5b610f8b8261120d565b9050602081019050919050565b6000819050602082019050919050565b600081519050919050565b600081519050919050565b6000602082019050919050565b600082825260208201905092915050565b600081905092915050565b600082825260208201905092915050565b600082825260208201905092915050565b6000611014826110d1565b915061101f836110d1565b9250827fffffffffffffffffffffffffffffffffffffffffffffffffffffffffffffffff0382111561105457611053611180565b5b828201905092915050565b600061106a826110d1565b9150611075836110d1565b92508282101561108857611087611180565b5b828203905092915050565b600061109e826110b1565b9050919050565b60008115159050919050565b600073ffffffffffffffffffffffffffffffffffffffff82169050919050565b6000819050919050565b82818337600083830152505050565b60005b838110156111085780820151818401526020810190506110ed565b83811115611117576000848401525b50505050565b6000600282049050600182168061113557607f821691505b60208210811415611149576111486111af565b5b50919050565b6111588261120d565b810181811067ffffffffffffffff82111715611177576111766111de565b5b80604052505050565b7f4e487b7100000000000000000000000000000000000000000000000000000000600052601160045260246000fd5b7f4e487b7100000000000000000000000000000000000000000000000000000000600052602260045260246000fd5b7f4e487b7100000000000000000000000000000000000000000000000000000000600052604160045260246000fd5b6000601f19601f8301169050919050565b7f4661696c656420746f2073656e64204574686572000000000000000000000000600082015250565b50565b611253816110a5565b811461125e57600080fd5b50565b61126a816110d1565b811461127557600080fd5b5056fea2646970667358221220bf179d86aa77aed8ccc961835914a3f28f8720efb8930bc9bbf92cb0cc864e6064736f6c63430008040033",
  "linkReferences": {},
  "deployedLinkReferences": {}
}