{
  "_format": "hh-sol-artifact-1",
  "contractName": "CityHacks",
  "sourceName": "contracts/CityHacks.sol",
  "abi": [
    {
      "inputs": [],
      "stateMutability": "nonpayable",
      "type": "constructor"
    },
    {
      "anonymous": false,
      "inputs": [
        {
          "indexed": true,
          "internalType": "address",
          "name": "from",
          "type": "address"
        },
        {
          "indexed": true,
          "internalType": "uint256",
          "name": "id",
          "type": "uint256"
        },
        {
          "indexed": false,
          "internalType": "string",
          "name": "description",
          "type": "string"
        },
        {
          "indexed": false,
          "internalType": "uint256",
          "name": "timestamp",
          "type": "uint256"
        }
      ],
      "name": "NewHack",
      "type": "event"
    },
    {
      "anonymous": false,
      "inputs": [
        {
          "indexed": true,
          "internalType": "address",
          "name": "previousOwner",
          "type": "address"
        },
        {
          "indexed": true,
          "internalType": "address",
          "name": "newOwner",
          "type": "address"
        }
      ],
      "name": "OwnershipTransferred",
      "type": "event"
    },
    {
      "anonymous": false,
      "inputs": [
        {
          "indexed": true,
          "internalType": "address",
          "name": "from",
          "type": "address"
        },
        {
          "indexed": true,
          "internalType": "uint256",
          "name": "hackId",
          "type": "uint256"
        },
        {
          "indexed": false,
          "internalType": "bool",
          "name": "_positive",
          "type": "bool"
        },
        {
          "indexed": false,
          "internalType": "uint256",
          "name": "timestamp",
          "type": "uint256"
        }
      ],
      "name": "VotedHack",
      "type": "event"
    },
    {
      "inputs": [],
      "name": "getAllHacks",
      "outputs": [
        {
          "components": [
            {
              "internalType": "address",
              "name": "owner",
              "type": "address"
            },
            {
              "internalType": "uint256",
              "name": "id",
              "type": "uint256"
            },
            {
              "internalType": "uint256",
              "name": "cityId",
              "type": "uint256"
            },
            {
              "internalType": "uint256",
              "name": "categoryId",
              "type": "uint256"
            },
            {
              "internalType": "string",
              "name": "description",
              "type": "string"
            },
            {
              "internalType": "uint256",
              "name": "timestamp",
              "type": "uint256"
            },
            {
              "internalType": "bool",
              "name": "isVotingBlocked",
              "type": "bool"
            },
            {
              "internalType": "uint256",
              "name": "totalUpvotes",
              "type": "uint256"
            },
            {
              "internalType": "uint256",
              "name": "totalDownvotes",
              "type": "uint256"
            },
            {
              "internalType": "bool",
              "name": "hidden",
              "type": "bool"
            }
          ],
          "internalType": "struct CityHacks.Hack[]",
          "name": "",
          "type": "tuple[]"
        }
      ],
      "stateMutability": "view",
      "type": "function"
    },
    {
      "inputs": [],
      "name": "getReportedHacks",
      "outputs": [
        {
          "internalType": "uint256[]",
          "name": "",
          "type": "uint256[]"
        }
      ],
      "stateMutability": "view",
      "type": "function"
    },
    {
      "inputs": [],
      "name": "getTotalHacks",
      "outputs": [
        {
          "internalType": "uint256",
          "name": "",
          "type": "uint256"
        }
      ],
      "stateMutability": "view",
      "type": "function"
    },
    {
      "inputs": [
        {
          "internalType": "uint256",
          "name": "_hackId",
          "type": "uint256"
        }
      ],
      "name": "hideHack",
      "outputs": [],
      "stateMutability": "nonpayable",
      "type": "function"
    },
    {
      "inputs": [],
      "name": "owner",
      "outputs": [
        {
          "internalType": "address",
          "name": "",
          "type": "address"
        }
      ],
      "stateMutability": "view",
      "type": "function"
    },
    {
      "inputs": [
        {
          "internalType": "string",
          "name": "_description",
          "type": "string"
        },
        {
          "internalType": "uint256",
          "name": "_cityId",
          "type": "uint256"
        },
        {
          "internalType": "uint256",
          "name": "_categoryId",
          "type": "uint256"
        }
      ],
      "name": "postHack",
      "outputs": [],
      "stateMutability": "nonpayable",
      "type": "function"
    },
    {
      "inputs": [],
      "name": "renounceOwnership",
      "outputs": [],
      "stateMutability": "nonpayable",
      "type": "function"
    },
    {
      "inputs": [
        {
          "internalType": "uint256",
          "name": "_hackId",
          "type": "uint256"
        }
      ],
      "name": "reportHack",
      "outputs": [],
      "stateMutability": "nonpayable",
      "type": "function"
    },
    {
      "inputs": [
        {
          "internalType": "uint256",
          "name": "_hackId",
          "type": "uint256"
        }
      ],
      "name": "tipHacker",
      "outputs": [],
      "stateMutability": "payable",
      "type": "function"
    },
    {
      "inputs": [
        {
          "internalType": "address",
          "name": "newOwner",
          "type": "address"
        }
      ],
      "name": "transferOwnership",
      "outputs": [],
      "stateMutability": "nonpayable",
      "type": "function"
    },
    {
      "inputs": [
        {
          "internalType": "uint256",
          "name": "_hackId",
          "type": "uint256"
        },
        {
          "internalType": "bool",
          "name": "_positive",
          "type": "bool"
        }
      ],
      "name": "voteHack",
      "outputs": [],
      "stateMutability": "nonpayable",
      "type": "function"
    }
  ],
  "bytecode": "0x608060405234801561001057600080fd5b5061002d61002261003260201b60201c565b61003a60201b60201c565b6100fe565b600033905090565b60008060009054906101000a900473ffffffffffffffffffffffffffffffffffffffff169050816000806101000a81548173ffffffffffffffffffffffffffffffffffffffff021916908373ffffffffffffffffffffffffffffffffffffffff1602179055508173ffffffffffffffffffffffffffffffffffffffff168173ffffffffffffffffffffffffffffffffffffffff167f8be0079c531659141344cd1fd0a4f28419497f9722a3daafe3b4186f6b6457e060405160405180910390a35050565b611b938061010d6000396000f3fe60806040526004361061009c5760003560e01c80638e15f0d5116100645780638e15f0d51461015157806392430f481461017c578063b037aa1c146101a7578063c342b5af146101d2578063cf42dfe7146101fb578063f2fde38b146102245761009c565b80633ba5fc3e146100a15780636cd7d768146100bd578063715018a6146100e65780637b7f6020146100fd5780638da5cb5b14610126575b600080fd5b6100bb60048036038101906100b69190611281565b61024d565b005b3480156100c957600080fd5b506100e460048036038101906100df9190611281565b610368565b005b3480156100f257600080fd5b506100fb61044b565b005b34801561010957600080fd5b50610124600480360381019061011f9190611281565b6104d3565b005b34801561013257600080fd5b5061013b6104ff565b604051610148919061162c565b60405180910390f35b34801561015d57600080fd5b50610166610528565b6040516101739190611647565b60405180910390f35b34801561018857600080fd5b506101916106e2565b60405161019e9190611669565b60405180910390f35b3480156101b357600080fd5b506101bc6107b6565b6040516101c99190611744565b60405180910390f35b3480156101de57600080fd5b506101f960048036038101906101f491906112aa565b6107c0565b005b34801561020757600080fd5b50610222600480360381019061021d919061121a565b610cd1565b005b34801561023057600080fd5b5061024b600480360381019061024691906111f1565b610ee3565b005b600060028281548110610289577f4e487b7100000000000000000000000000000000000000000000000000000000600052603260045260246000fd5b90600052602060002090600a020160000160009054906101000a900473ffffffffffffffffffffffffffffffffffffffff1673ffffffffffffffffffffffffffffffffffffffff16346040516102de90611617565b60006040518083038185875af1925050503d806000811461031b576040519150601f19603f3d011682016040523d82523d6000602084013e610320565b606091505b5050905080610364576040517f08c379a000000000000000000000000000000000000000000000000000000000815260040161035b90611704565b60405180910390fd5b5050565b610370610fdb565b73ffffffffffffffffffffffffffffffffffffffff1661038e6104ff565b73ffffffffffffffffffffffffffffffffffffffff16146103e4576040517f08c379a00000000000000000000000000000000000000000000000000000000081526004016103db90611724565b60405180910390fd5b600160028281548110610420577f4e487b7100000000000000000000000000000000000000000000000000000000600052603260045260246000fd5b90600052602060002090600a020160090160006101000a81548160ff02191690831515021790555050565b610453610fdb565b73ffffffffffffffffffffffffffffffffffffffff166104716104ff565b73ffffffffffffffffffffffffffffffffffffffff16146104c7576040517f08c379a00000000000000000000000000000000000000000000000000000000081526004016104be90611724565b60405180910390fd5b6104d16000610fe3565b565b600381908060018154018082558091505060019003906000526020600020016000909190919091505550565b60008060009054906101000a900473ffffffffffffffffffffffffffffffffffffffff16905090565b60606002805480602002602001604051908101604052809291908181526020016000905b828210156106d957838290600052602060002090600a0201604051806101400160405290816000820160009054906101000a900473ffffffffffffffffffffffffffffffffffffffff1673ffffffffffffffffffffffffffffffffffffffff1673ffffffffffffffffffffffffffffffffffffffff1681526020016001820154815260200160028201548152602001600382015481526020016004820180546105f490611973565b80601f016020809104026020016040519081016040528092919081815260200182805461062090611973565b801561066d5780601f106106425761010080835404028352916020019161066d565b820191906000526020600020905b81548152906001019060200180831161065057829003601f168201915b50505050508152602001600582015481526020016006820160009054906101000a900460ff1615151515815260200160078201548152602001600882015481526020016009820160009054906101000a900460ff1615151515815250508152602001906001019061054c565b50505050905090565b60606106ec610fdb565b73ffffffffffffffffffffffffffffffffffffffff1661070a6104ff565b73ffffffffffffffffffffffffffffffffffffffff1614610760576040517f08c379a000000000000000000000000000000000000000000000000000000000815260040161075790611724565b60405180910390fd5b60038054806020026020016040519081016040528092919081815260200182805480156107ac57602002820191906000526020600020905b815481526020019060010190808311610798575b5050505050905090565b6000600154905090565b600282815481106107fa577f4e487b7100000000000000000000000000000000000000000000000000000000600052603260045260246000fd5b90600052602060002090600a020160000160009054906101000a900473ffffffffffffffffffffffffffffffffffffffff1673ffffffffffffffffffffffffffffffffffffffff163373ffffffffffffffffffffffffffffffffffffffff16141561086457600080fd5b6000600460003373ffffffffffffffffffffffffffffffffffffffff1673ffffffffffffffffffffffffffffffffffffffff16815260200190815260200160002060008481526020019081526020016000206040518060400160405290816000820160009054906101000a900460ff161515151581526020016000820160019054906101000a900460ff1615151515815250509050806000015115610ab95781151581602001511515141561091857600080fd5b8060200151156109ed5760016002848154811061095e577f4e487b7100000000000000000000000000000000000000000000000000000000600052603260045260246000fd5b90600052602060002090600a0201600701600082825461097e91906118b5565b925050819055506001600284815481106109c1577f4e487b7100000000000000000000000000000000000000000000000000000000600052603260045260246000fd5b90600052602060002090600a020160080160008282546109e1919061185f565b92505081905550610ab4565b600160028481548110610a29577f4e487b7100000000000000000000000000000000000000000000000000000000600052603260045260246000fd5b90600052602060002090600a02016007016000828254610a49919061185f565b92505081905550600160028481548110610a8c577f4e487b7100000000000000000000000000000000000000000000000000000000600052603260045260246000fd5b90600052602060002090600a02016008016000828254610aac91906118b5565b925050819055505b610b9d565b8115610b2757600160028481548110610afb577f4e487b7100000000000000000000000000000000000000000000000000000000600052603260045260246000fd5b90600052602060002090600a02016007016000828254610b1b919061185f565b92505081905550610b8b565b600160028481548110610b63577f4e487b7100000000000000000000000000000000000000000000000000000000600052603260045260246000fd5b90600052602060002090600a02016008016000828254610b83919061185f565b925050819055505b60018160000190151590811515815250505b8181602001901515908115158152505080600460003373ffffffffffffffffffffffffffffffffffffffff1673ffffffffffffffffffffffffffffffffffffffff168152602001908152602001600020600085815260200190815260200160002060008201518160000160006101000a81548160ff02191690831515021790555060208201518160000160016101000a81548160ff02191690831515021790555090505060056000848152602001908152602001600020429080600181540180825580915050600190039060005260206000200160009091909190915055823373ffffffffffffffffffffffffffffffffffffffff167f4fb078f057caaccd039905efcc630de8af450d7c575a79dcddc983edd7423c128442604051610cc492919061168b565b60405180910390a3505050565b600083905060008151118015610ce75750600083115b8015610cf35750600082115b610cfc57600080fd5b60026040518061014001604052803373ffffffffffffffffffffffffffffffffffffffff168152602001600154815260200185815260200184815260200186815260200142815260200160001515815260200160008152602001600081526020016000151581525090806001815401808255809150506001900390600052602060002090600a020160009091909190915060008201518160000160006101000a81548173ffffffffffffffffffffffffffffffffffffffff021916908373ffffffffffffffffffffffffffffffffffffffff1602179055506020820151816001015560408201518160020155606082015181600301556080820151816004019080519060200190610e0e9291906110a7565b5060a0820151816005015560c08201518160060160006101000a81548160ff02191690831515021790555060e0820151816007015561010082015181600801556101208201518160090160006101000a81548160ff02191690831515021790555050506001806000828254610e83919061185f565b925050819055506001543373ffffffffffffffffffffffffffffffffffffffff167ff1bd87d4783914bb1934b1c002d65179a1a8d7f4f3f64a198b93c9e8762204b58642604051610ed59291906116b4565b60405180910390a350505050565b610eeb610fdb565b73ffffffffffffffffffffffffffffffffffffffff16610f096104ff565b73ffffffffffffffffffffffffffffffffffffffff1614610f5f576040517f08c379a0000000000000000000000000000000000000000000000000000000008152600401610f5690611724565b60405180910390fd5b600073ffffffffffffffffffffffffffffffffffffffff168173ffffffffffffffffffffffffffffffffffffffff161415610fcf576040517f08c379a0000000000000000000000000000000000000000000000000000000008152600401610fc6906116e4565b60405180910390fd5b610fd881610fe3565b50565b600033905090565b60008060009054906101000a900473ffffffffffffffffffffffffffffffffffffffff169050816000806101000a81548173ffffffffffffffffffffffffffffffffffffffff021916908373ffffffffffffffffffffffffffffffffffffffff1602179055508173ffffffffffffffffffffffffffffffffffffffff168173ffffffffffffffffffffffffffffffffffffffff167f8be0079c531659141344cd1fd0a4f28419497f9722a3daafe3b4186f6b6457e060405160405180910390a35050565b8280546110b390611973565b90600052602060002090601f0160209004810192826110d5576000855561111c565b82601f106110ee57805160ff191683800117855561111c565b8280016001018555821561111c579182015b8281111561111b578251825591602001919060010190611100565b5b509050611129919061112d565b5090565b5b8082111561114657600081600090555060010161112e565b5090565b600061115d61115884611784565b61175f565b90508281526020810184848401111561117557600080fd5b611180848285611931565b509392505050565b60008135905061119781611b18565b92915050565b6000813590506111ac81611b2f565b92915050565b600082601f8301126111c357600080fd5b81356111d384826020860161114a565b91505092915050565b6000813590506111eb81611b46565b92915050565b60006020828403121561120357600080fd5b600061121184828501611188565b91505092915050565b60008060006060848603121561122f57600080fd5b600084013567ffffffffffffffff81111561124957600080fd5b611255868287016111b2565b9350506020611266868287016111dc565b9250506040611277868287016111dc565b9150509250925092565b60006020828403121561129357600080fd5b60006112a1848285016111dc565b91505092915050565b600080604083850312156112bd57600080fd5b60006112cb858286016111dc565b92505060206112dc8582860161119d565b9150509250929050565b60006112f2838361151f565b905092915050565b600061130683836115f9565b60208301905092915050565b61131b816118e9565b82525050565b61132a816118e9565b82525050565b600061133b826117d5565b6113458185611810565b935083602082028501611357856117b5565b8060005b85811015611393578484038952815161137485826112e6565b945061137f836117f6565b925060208a0199505060018101905061135b565b50829750879550505050505092915050565b60006113b0826117e0565b6113ba8185611821565b93506113c5836117c5565b8060005b838110156113f65781516113dd88826112fa565b97506113e883611803565b9250506001810190506113c9565b5085935050505092915050565b61140c816118fb565b82525050565b61141b816118fb565b82525050565b600061142c826117eb565b611436818561183d565b9350611446818560208601611940565b61144f81611a63565b840191505092915050565b6000611465826117eb565b61146f818561184e565b935061147f818560208601611940565b61148881611a63565b840191505092915050565b60006114a060268361184e565b91506114ab82611a74565b604082019050919050565b60006114c360148361184e565b91506114ce82611ac3565b602082019050919050565b60006114e660208361184e565b91506114f182611aec565b602082019050919050565b6000611509600083611832565b915061151482611b15565b600082019050919050565b6000610140830160008301516115386000860182611312565b50602083015161154b60208601826115f9565b50604083015161155e60408601826115f9565b50606083015161157160608601826115f9565b50608083015184820360808601526115898282611421565b91505060a083015161159e60a08601826115f9565b5060c08301516115b160c0860182611403565b5060e08301516115c460e08601826115f9565b506101008301516115d96101008601826115f9565b506101208301516115ee610120860182611403565b508091505092915050565b61160281611927565b82525050565b61161181611927565b82525050565b6000611622826114fc565b9150819050919050565b60006020820190506116416000830184611321565b92915050565b600060208201905081810360008301526116618184611330565b905092915050565b6000602082019050818103600083015261168381846113a5565b905092915050565b60006040820190506116a06000830185611412565b6116ad6020830184611608565b9392505050565b600060408201905081810360008301526116ce818561145a565b90506116dd6020830184611608565b9392505050565b600060208201905081810360008301526116fd81611493565b9050919050565b6000602082019050818103600083015261171d816114b6565b9050919050565b6000602082019050818103600083015261173d816114d9565b9050919050565b60006020820190506117596000830184611608565b92915050565b600061176961177a565b905061177582826119a5565b919050565b6000604051905090565b600067ffffffffffffffff82111561179f5761179e611a34565b5b6117a882611a63565b9050602081019050919050565b6000819050602082019050919050565b6000819050602082019050919050565b600081519050919050565b600081519050919050565b600081519050919050565b6000602082019050919050565b6000602082019050919050565b600082825260208201905092915050565b600082825260208201905092915050565b600081905092915050565b600082825260208201905092915050565b600082825260208201905092915050565b600061186a82611927565b915061187583611927565b9250827fffffffffffffffffffffffffffffffffffffffffffffffffffffffffffffffff038211156118aa576118a96119d6565b5b828201905092915050565b60006118c082611927565b91506118cb83611927565b9250828210156118de576118dd6119d6565b5b828203905092915050565b60006118f482611907565b9050919050565b60008115159050919050565b600073ffffffffffffffffffffffffffffffffffffffff82169050919050565b6000819050919050565b82818337600083830152505050565b60005b8381101561195e578082015181840152602081019050611943565b8381111561196d576000848401525b50505050565b6000600282049050600182168061198b57607f821691505b6020821081141561199f5761199e611a05565b5b50919050565b6119ae82611a63565b810181811067ffffffffffffffff821117156119cd576119cc611a34565b5b80604052505050565b7f4e487b7100000000000000000000000000000000000000000000000000000000600052601160045260246000fd5b7f4e487b7100000000000000000000000000000000000000000000000000000000600052602260045260246000fd5b7f4e487b7100000000000000000000000000000000000000000000000000000000600052604160045260246000fd5b6000601f19601f8301169050919050565b7f4f776e61626c653a206e6577206f776e657220697320746865207a65726f206160008201527f6464726573730000000000000000000000000000000000000000000000000000602082015250565b7f4661696c656420746f2073656e64204574686572000000000000000000000000600082015250565b7f4f776e61626c653a2063616c6c6572206973206e6f7420746865206f776e6572600082015250565b50565b611b21816118e9565b8114611b2c57600080fd5b50565b611b38816118fb565b8114611b4357600080fd5b50565b611b4f81611927565b8114611b5a57600080fd5b5056fea26469706673582212200fb2ab51e843ce173044b4571e5bd5b23ce69b3373b7045d8f0fe7a782992cd764736f6c63430008040033",
  "linkReferences": {},
  "deployedLinkReferences": {}
}